{
  "_format": "hh-sol-artifact-1",
  "contractName": "LuckyDraw",
  "sourceName": "contracts/LuckyDraw.sol",
  "abi": [
    {
      "inputs": [
        {
          "internalType": "address",
          "name": "tokenAddr",
          "type": "address"
        },
        {
          "internalType": "address",
          "name": "nftAddr",
          "type": "address"
        }
      ],
      "stateMutability": "nonpayable",
      "type": "constructor"
    },
    {
      "anonymous": false,
      "inputs": [
        {
          "indexed": true,
          "internalType": "address",
          "name": "user",
          "type": "address"
        },
        {
          "indexed": false,
          "internalType": "string",
          "name": "rewardType",
          "type": "string"
        },
        {
          "indexed": false,
          "internalType": "uint256",
          "name": "amount",
          "type": "uint256"
        },
        {
          "indexed": false,
          "internalType": "uint256",
          "name": "nftId",
          "type": "uint256"
        },
        {
          "indexed": false,
          "internalType": "uint256",
          "name": "timestamp",
          "type": "uint256"
        }
      ],
      "name": "SpinResult",
      "type": "event"
    },
    {
      "inputs": [
        {
          "internalType": "uint256",
          "name": "",
          "type": "uint256"
        }
      ],
      "name": "allUsers",
      "outputs": [
        {
          "internalType": "address",
          "name": "",
          "type": "address"
        }
      ],
      "stateMutability": "view",
      "type": "function"
    },
    {
      "inputs": [],
      "name": "boxPrice",
      "outputs": [
        {
          "internalType": "uint256",
          "name": "",
          "type": "uint256"
        }
      ],
      "stateMutability": "view",
      "type": "function"
    },
    {
      "inputs": [],
      "name": "getAllSpins",
      "outputs": [
        {
          "internalType": "address[]",
          "name": "",
          "type": "address[]"
        },
        {
          "components": [
            {
              "internalType": "string",
              "name": "rewardType",
              "type": "string"
            },
            {
              "internalType": "uint256",
              "name": "amount",
              "type": "uint256"
            },
            {
              "internalType": "uint256",
              "name": "nftId",
              "type": "uint256"
            },
            {
              "internalType": "uint256",
              "name": "timestamp",
              "type": "uint256"
            }
          ],
          "internalType": "struct LuckyDraw.SpinInfo[][]",
          "name": "",
          "type": "tuple[][]"
        }
      ],
      "stateMutability": "view",
      "type": "function"
    },
    {
      "inputs": [],
      "name": "getPrice",
      "outputs": [
        {
          "internalType": "uint256",
          "name": "",
          "type": "uint256"
        }
      ],
      "stateMutability": "view",
      "type": "function"
    },
    {
      "inputs": [
        {
          "internalType": "address",
          "name": "user",
          "type": "address"
        }
      ],
      "name": "getUserSpins",
      "outputs": [
        {
          "components": [
            {
              "internalType": "string",
              "name": "rewardType",
              "type": "string"
            },
            {
              "internalType": "uint256",
              "name": "amount",
              "type": "uint256"
            },
            {
              "internalType": "uint256",
              "name": "nftId",
              "type": "uint256"
            },
            {
              "internalType": "uint256",
              "name": "timestamp",
              "type": "uint256"
            }
          ],
          "internalType": "struct LuckyDraw.SpinInfo[]",
          "name": "",
          "type": "tuple[]"
        }
      ],
      "stateMutability": "view",
      "type": "function"
    },
    {
      "inputs": [],
      "name": "nft",
      "outputs": [
        {
          "internalType": "contract MysteryNFT",
          "name": "",
          "type": "address"
        }
      ],
      "stateMutability": "view",
      "type": "function"
    },
    {
      "inputs": [
        {
          "internalType": "uint256",
          "name": "newPrice",
          "type": "uint256"
        }
      ],
      "name": "setPrice",
      "outputs": [],
      "stateMutability": "nonpayable",
      "type": "function"
    },
    {
      "inputs": [],
      "name": "spin",
      "outputs": [],
      "stateMutability": "payable",
      "type": "function"
    },
    {
      "inputs": [],
      "name": "token",
      "outputs": [
        {
          "internalType": "contract RewardToken",
          "name": "",
          "type": "address"
        }
      ],
      "stateMutability": "view",
      "type": "function"
    },
    {
      "inputs": [
        {
          "internalType": "address",
          "name": "",
          "type": "address"
        },
        {
          "internalType": "uint256",
          "name": "",
          "type": "uint256"
        }
      ],
      "name": "userSpins",
      "outputs": [
        {
          "internalType": "string",
          "name": "rewardType",
          "type": "string"
        },
        {
          "internalType": "uint256",
          "name": "amount",
          "type": "uint256"
        },
        {
          "internalType": "uint256",
          "name": "nftId",
          "type": "uint256"
        },
        {
          "internalType": "uint256",
          "name": "timestamp",
          "type": "uint256"
        }
      ],
      "stateMutability": "view",
      "type": "function"
    },
    {
      "inputs": [],
      "name": "withdraw",
      "outputs": [],
      "stateMutability": "nonpayable",
      "type": "function"
    }
  ],
  "bytecode": "0x608060405267016345785d8a000060025534801561001c57600080fd5b50604051611e65380380611e65833981810160405281019061003e9190610129565b816000806101000a81548173ffffffffffffffffffffffffffffffffffffffff021916908373ffffffffffffffffffffffffffffffffffffffff16021790555080600160006101000a81548173ffffffffffffffffffffffffffffffffffffffff021916908373ffffffffffffffffffffffffffffffffffffffff1602179055505050610169565b600080fd5b600073ffffffffffffffffffffffffffffffffffffffff82169050919050565b60006100f6826100cb565b9050919050565b610106816100eb565b811461011157600080fd5b50565b600081519050610123816100fd565b92915050565b600080604083850312156101405761013f6100c6565b5b600061014e85828601610114565b925050602061015f85828601610114565b9150509250929050565b611ced806101786000396000f3fe60806040526004361061009c5760003560e01c806398d5fdca1161006457806398d5fdca14610175578063a2bdedf4146101a0578063a6482858146101dd578063d53cab6614610208578063f0acd7d514610248578063fc0c546a146102525761009c565b80633ccfd60b146100a157806347ccca02146100b857806361ac0a99146100e3578063638b709a1461010f57806391b7f5ed1461014c575b600080fd5b3480156100ad57600080fd5b506100b661027d565b005b3480156100c457600080fd5b506100cd6102c6565b6040516100da9190610f23565b60405180910390f35b3480156100ef57600080fd5b506100f86102ec565b60405161010692919061129e565b60405180910390f35b34801561011b57600080fd5b5061013660048036038101906101319190611306565b610599565b60405161014391906113b9565b60405180910390f35b34801561015857600080fd5b50610173600480360381019061016e9190611407565b6106e7565b005b34801561018157600080fd5b5061018a6106f1565b6040516101979190611443565b60405180910390f35b3480156101ac57600080fd5b506101c760048036038101906101c29190611407565b6106fb565b6040516101d4919061146d565b60405180910390f35b3480156101e957600080fd5b506101f261073a565b6040516101ff9190611443565b60405180910390f35b34801561021457600080fd5b5061022f600480360381019061022a9190611488565b610740565b60405161023f9493929190611512565b60405180910390f35b610250610815565b005b34801561025e57600080fd5b50610267610e80565b604051610274919061157f565b60405180910390f35b3373ffffffffffffffffffffffffffffffffffffffff166108fc479081150290604051600060405180830381858888f193505050501580156102c3573d6000803e3d6000fd5b50565b600160009054906101000a900473ffffffffffffffffffffffffffffffffffffffff1681565b606080600060048054905067ffffffffffffffff8111156103105761030f61159a565b5b60405190808252806020026020018201604052801561034357816020015b606081526020019060019003908161032e5790505b50905060005b60048054905081101561050457600360006004838154811061036e5761036d6115c9565b5b9060005260206000200160009054906101000a900473ffffffffffffffffffffffffffffffffffffffff1673ffffffffffffffffffffffffffffffffffffffff1673ffffffffffffffffffffffffffffffffffffffff168152602001908152602001600020805480602002602001604051908101604052809291908181526020016000905b828210156104d5578382906000526020600020906004020160405180608001604052908160008201805461042690611627565b80601f016020809104026020016040519081016040528092919081815260200182805461045290611627565b801561049f5780601f106104745761010080835404028352916020019161049f565b820191906000526020600020905b81548152906001019060200180831161048257829003601f168201915b505050505081526020016001820154815260200160028201548152602001600382015481525050815260200190600101906103f3565b505050508282815181106104ec576104eb6115c9565b5b60200260200101819052508080600101915050610349565b506004818180548060200260200160405190810160405280929190818152602001828054801561058957602002820191906000526020600020905b8160009054906101000a900473ffffffffffffffffffffffffffffffffffffffff1673ffffffffffffffffffffffffffffffffffffffff168152602001906001019080831161053f575b5050505050915092509250509091565b6060600360008373ffffffffffffffffffffffffffffffffffffffff1673ffffffffffffffffffffffffffffffffffffffff168152602001908152602001600020805480602002602001604051908101604052809291908181526020016000905b828210156106dc578382906000526020600020906004020160405180608001604052908160008201805461062d90611627565b80601f016020809104026020016040519081016040528092919081815260200182805461065990611627565b80156106a65780601f1061067b576101008083540402835291602001916106a6565b820191906000526020600020905b81548152906001019060200180831161068957829003601f168201915b505050505081526020016001820154815260200160028201548152602001600382015481525050815260200190600101906105fa565b505050509050919050565b8060028190555050565b6000600254905090565b6004818154811061070b57600080fd5b906000526020600020016000915054906101000a900473ffffffffffffffffffffffffffffffffffffffff1681565b60025481565b6003602052816000526040600020818154811061075c57600080fd5b90600052602060002090600402016000915091505080600001805461078090611627565b80601f01602080910402602001604051908101604052809291908181526020018280546107ac90611627565b80156107f95780601f106107ce576101008083540402835291602001916107f9565b820191906000526020600020905b8154815290600101906020018083116107dc57829003601f168201915b5050505050908060010154908060020154908060030154905084565b60025434101561085a576040517f08c379a0000000000000000000000000000000000000000000000000000000008152600401610851906116a4565b60405180910390fd5b6000600360003373ffffffffffffffffffffffffffffffffffffffff1673ffffffffffffffffffffffffffffffffffffffff1681526020019081526020016000208054905003610908576004339080600181540180825580915050600190039060005260206000200160009091909190916101000a81548173ffffffffffffffffffffffffffffffffffffffff021916908373ffffffffffffffffffffffffffffffffffffffff1602179055505b6000606433424443604051602001610923949392919061172d565b6040516020818303038152906040528051906020012060001c61094691906117aa565b90506028811015610a9f573373ffffffffffffffffffffffffffffffffffffffff167fff8e13e413cdd97258893657446fa4eaae96bb928c013d2ac08e4516986b4cc96000804260405161099c93929190611862565b60405180910390a2600360003373ffffffffffffffffffffffffffffffffffffffff1673ffffffffffffffffffffffffffffffffffffffff16815260200190815260200160002060405180608001604052806040518060400160405280600481526020017f6e6f6e6500000000000000000000000000000000000000000000000000000000815250815260200160008152602001600081526020014281525090806001815401808255809150506001900390600052602060002090600402016000909190919091506000820151816000019081610a799190611a4e565b506020820151816001015560408201518160020155606082015181600301555050610e7d565b6046811015610c90576000674563918244f40000905060008054906101000a900473ffffffffffffffffffffffffffffffffffffffff1673ffffffffffffffffffffffffffffffffffffffff166340c10f1933836040518363ffffffff1660e01b8152600401610b10929190611b20565b600060405180830381600087803b158015610b2a57600080fd5b505af1158015610b3e573d6000803e3d6000fd5b505050503373ffffffffffffffffffffffffffffffffffffffff167fff8e13e413cdd97258893657446fa4eaae96bb928c013d2ac08e4516986b4cc982600042604051610b8d93929190611b95565b60405180910390a2600360003373ffffffffffffffffffffffffffffffffffffffff1673ffffffffffffffffffffffffffffffffffffffff16815260200190815260200160002060405180608001604052806040518060400160405280600581526020017f746f6b656e0000000000000000000000000000000000000000000000000000008152508152602001838152602001600081526020014281525090806001815401808255809150506001900390600052602060002090600402016000909190919091506000820151816000019081610c699190611a4e565b50602082015181600101556040820151816002015560608201518160030155505050610e7c565b6000600160009054906101000a900473ffffffffffffffffffffffffffffffffffffffff1673ffffffffffffffffffffffffffffffffffffffff166354ba0f27336040518263ffffffff1660e01b8152600401610ced919061146d565b6020604051808303816000875af1158015610d0c573d6000803e3d6000fd5b505050506040513d601f19601f82011682018060405250810190610d309190611bf4565b90503373ffffffffffffffffffffffffffffffffffffffff167fff8e13e413cdd97258893657446fa4eaae96bb928c013d2ac08e4516986b4cc960008342604051610d7d93929190611c6d565b60405180910390a2600360003373ffffffffffffffffffffffffffffffffffffffff1673ffffffffffffffffffffffffffffffffffffffff16815260200190815260200160002060405180608001604052806040518060400160405280600381526020017f6e667400000000000000000000000000000000000000000000000000000000008152508152602001600081526020018381526020014281525090806001815401808255809150506001900390600052602060002090600402016000909190919091506000820151816000019081610e599190611a4e565b506020820151816001015560408201518160020155606082015181600301555050505b5b50565b60008054906101000a900473ffffffffffffffffffffffffffffffffffffffff1681565b600073ffffffffffffffffffffffffffffffffffffffff82169050919050565b6000819050919050565b6000610ee9610ee4610edf84610ea4565b610ec4565b610ea4565b9050919050565b6000610efb82610ece565b9050919050565b6000610f0d82610ef0565b9050919050565b610f1d81610f02565b82525050565b6000602082019050610f386000830184610f14565b92915050565b600081519050919050565b600082825260208201905092915050565b6000819050602082019050919050565b6000610f7582610ea4565b9050919050565b610f8581610f6a565b82525050565b6000610f978383610f7c565b60208301905092915050565b6000602082019050919050565b6000610fbb82610f3e565b610fc58185610f49565b9350610fd083610f5a565b8060005b83811015611001578151610fe88882610f8b565b9750610ff383610fa3565b925050600181019050610fd4565b5085935050505092915050565b600081519050919050565b600082825260208201905092915050565b6000819050602082019050919050565b600081519050919050565b600082825260208201905092915050565b6000819050602082019050919050565b600081519050919050565b600082825260208201905092915050565b60005b838110156110a0578082015181840152602081019050611085565b60008484015250505050565b6000601f19601f8301169050919050565b60006110c882611066565b6110d28185611071565b93506110e2818560208601611082565b6110eb816110ac565b840191505092915050565b6000819050919050565b611109816110f6565b82525050565b6000608083016000830151848203600086015261112c82826110bd565b91505060208301516111416020860182611100565b5060408301516111546040860182611100565b5060608301516111676060860182611100565b508091505092915050565b600061117e838361110f565b905092915050565b6000602082019050919050565b600061119e8261103a565b6111a88185611045565b9350836020820285016111ba85611056565b8060005b858110156111f657848403895281516111d78582611172565b94506111e283611186565b925060208a019950506001810190506111be565b50829750879550505050505092915050565b60006112148383611193565b905092915050565b6000602082019050919050565b60006112348261100e565b61123e8185611019565b9350836020820285016112508561102a565b8060005b8581101561128c578484038952815161126d8582611208565b94506112788361121c565b925060208a01995050600181019050611254565b50829750879550505050505092915050565b600060408201905081810360008301526112b88185610fb0565b905081810360208301526112cc8184611229565b90509392505050565b600080fd5b6112e381610f6a565b81146112ee57600080fd5b50565b600081359050611300816112da565b92915050565b60006020828403121561131c5761131b6112d5565b5b600061132a848285016112f1565b91505092915050565b600082825260208201905092915050565b600061134f8261103a565b6113598185611333565b93508360208202850161136b85611056565b8060005b858110156113a757848403895281516113888582611172565b945061139383611186565b925060208a0199505060018101905061136f565b50829750879550505050505092915050565b600060208201905081810360008301526113d38184611344565b905092915050565b6113e4816110f6565b81146113ef57600080fd5b50565b600081359050611401816113db565b92915050565b60006020828403121561141d5761141c6112d5565b5b600061142b848285016113f2565b91505092915050565b61143d816110f6565b82525050565b60006020820190506114586000830184611434565b92915050565b61146781610f6a565b82525050565b6000602082019050611482600083018461145e565b92915050565b6000806040838503121561149f5761149e6112d5565b5b60006114ad858286016112f1565b92505060206114be858286016113f2565b9150509250929050565b600082825260208201905092915050565b60006114e482611066565b6114ee81856114c8565b93506114fe818560208601611082565b611507816110ac565b840191505092915050565b6000608082019050818103600083015261152c81876114d9565b905061153b6020830186611434565b6115486040830185611434565b6115556060830184611434565b95945050505050565b600061156982610ef0565b9050919050565b6115798161155e565b82525050565b60006020820190506115946000830184611570565b92915050565b7f4e487b7100000000000000000000000000000000000000000000000000000000600052604160045260246000fd5b7f4e487b7100000000000000000000000000000000000000000000000000000000600052603260045260246000fd5b7f4e487b7100000000000000000000000000000000000000000000000000000000600052602260045260246000fd5b6000600282049050600182168061163f57607f821691505b602082108103611652576116516115f8565b5b50919050565b7f696e73756666696369656e74207061796d656e74000000000000000000000000600082015250565b600061168e6014836114c8565b915061169982611658565b602082019050919050565b600060208201905081810360008301526116bd81611681565b9050919050565b60008160601b9050919050565b60006116dc826116c4565b9050919050565b60006116ee826116d1565b9050919050565b61170661170182610f6a565b6116e3565b82525050565b6000819050919050565b611727611722826110f6565b61170c565b82525050565b600061173982876116f5565b6014820191506117498286611716565b6020820191506117598285611716565b6020820191506117698284611716565b60208201915081905095945050505050565b7f4e487b7100000000000000000000000000000000000000000000000000000000600052601260045260246000fd5b60006117b5826110f6565b91506117c0836110f6565b9250826117d0576117cf61177b565b5b828206905092915050565b7f6e6f6e6500000000000000000000000000000000000000000000000000000000600082015250565b60006118116004836114c8565b915061181c826117db565b602082019050919050565b6000819050919050565b600061184c61184761184284611827565b610ec4565b6110f6565b9050919050565b61185c81611831565b82525050565b6000608082019050818103600083015261187b81611804565b905061188a6020830186611853565b6118976040830185611853565b6118a46060830184611434565b949350505050565b60008190508160005260206000209050919050565b60006020601f8301049050919050565b600082821b905092915050565b60006008830261190e7fffffffffffffffffffffffffffffffffffffffffffffffffffffffffffffffff826118d1565b61191886836118d1565b95508019841693508086168417925050509392505050565b600061194b611946611941846110f6565b610ec4565b6110f6565b9050919050565b6000819050919050565b61196583611930565b61197961197182611952565b8484546118de565b825550505050565b600090565b61198e611981565b61199981848461195c565b505050565b5b818110156119bd576119b2600082611986565b60018101905061199f565b5050565b601f821115611a02576119d3816118ac565b6119dc846118c1565b810160208510156119eb578190505b6119ff6119f7856118c1565b83018261199e565b50505b505050565b600082821c905092915050565b6000611a2560001984600802611a07565b1980831691505092915050565b6000611a3e8383611a14565b9150826002028217905092915050565b611a5782611066565b67ffffffffffffffff811115611a7057611a6f61159a565b5b611a7a8254611627565b611a858282856119c1565b600060209050601f831160018114611ab85760008415611aa6578287015190505b611ab08582611a32565b865550611b18565b601f198416611ac6866118ac565b60005b82811015611aee57848901518255600182019150602085019450602081019050611ac9565b86831015611b0b5784890151611b07601f891682611a14565b8355505b6001600288020188555050505b505050505050565b6000604082019050611b35600083018561145e565b611b426020830184611434565b9392505050565b7f746f6b656e000000000000000000000000000000000000000000000000000000600082015250565b6000611b7f6005836114c8565b9150611b8a82611b49565b602082019050919050565b60006080820190508181036000830152611bae81611b72565b9050611bbd6020830186611434565b611bca6040830185611853565b611bd76060830184611434565b949350505050565b600081519050611bee816113db565b92915050565b600060208284031215611c0a57611c096112d5565b5b6000611c1884828501611bdf565b91505092915050565b7f6e66740000000000000000000000000000000000000000000000000000000000600082015250565b6000611c576003836114c8565b9150611c6282611c21565b602082019050919050565b60006080820190508181036000830152611c8681611c4a565b9050611c956020830186611853565b611ca26040830185611434565b611caf6060830184611434565b94935050505056fea26469706673582212206e2b904ad49d7ebab81d069d6dd479057be6cf1933ec4419cba21347a516143b64736f6c634300081c0033",
  "linkReferences": {},
  "deployedLinkReferences": {}
}