{
  "_format": "hh-sol-artifact-1",
  "contractName": "LuckyDraw",
  "sourceName": "contracts/LuckyDraw.sol",
  "abi": [
    {
      "inputs": [
        {
          "internalType": "address",
          "name": "tokenAddr",
          "type": "address"
        },
        {
          "internalType": "address",
          "name": "nftAddr",
          "type": "address"
        }
      ],
      "stateMutability": "nonpayable",
      "type": "constructor"
    },
    {
      "anonymous": false,
      "inputs": [
        {
          "indexed": true,
          "internalType": "address",
          "name": "user",
          "type": "address"
        },
        {
          "indexed": false,
          "internalType": "string",
          "name": "rewardType",
          "type": "string"
        },
        {
          "indexed": false,
          "internalType": "uint256",
          "name": "amount",
          "type": "uint256"
        },
        {
          "indexed": false,
          "internalType": "uint256",
          "name": "nftId",
          "type": "uint256"
        },
        {
          "indexed": false,
          "internalType": "uint256",
          "name": "timestamp",
          "type": "uint256"
        }
      ],
      "name": "SpinResult",
      "type": "event"
    },
    {
      "inputs": [
        {
          "internalType": "uint256",
          "name": "",
          "type": "uint256"
        }
      ],
      "name": "allUsers",
      "outputs": [
        {
          "internalType": "address",
          "name": "",
          "type": "address"
        }
      ],
      "stateMutability": "view",
      "type": "function"
    },
    {
      "inputs": [],
      "name": "boxPrice",
      "outputs": [
        {
          "internalType": "uint256",
          "name": "",
          "type": "uint256"
        }
      ],
      "stateMutability": "view",
      "type": "function"
    },
    {
      "inputs": [],
      "name": "getAllSpins",
      "outputs": [
        {
          "internalType": "address[]",
          "name": "",
          "type": "address[]"
        },
        {
          "components": [
            {
              "internalType": "string",
              "name": "rewardType",
              "type": "string"
            },
            {
              "internalType": "uint256",
              "name": "amount",
              "type": "uint256"
            },
            {
              "internalType": "uint256",
              "name": "nftId",
              "type": "uint256"
            },
            {
              "internalType": "uint256",
              "name": "timestamp",
              "type": "uint256"
            }
          ],
          "internalType": "struct LuckyDraw.SpinInfo[][]",
          "name": "",
          "type": "tuple[][]"
        }
      ],
      "stateMutability": "view",
      "type": "function"
    },
    {
      "inputs": [],
      "name": "getPrice",
      "outputs": [
        {
          "internalType": "uint256",
          "name": "",
          "type": "uint256"
        }
      ],
      "stateMutability": "view",
      "type": "function"
    },
    {
      "inputs": [
        {
          "internalType": "address",
          "name": "user",
          "type": "address"
        }
      ],
      "name": "getUserSpins",
      "outputs": [
        {
          "components": [
            {
              "internalType": "string",
              "name": "rewardType",
              "type": "string"
            },
            {
              "internalType": "uint256",
              "name": "amount",
              "type": "uint256"
            },
            {
              "internalType": "uint256",
              "name": "nftId",
              "type": "uint256"
            },
            {
              "internalType": "uint256",
              "name": "timestamp",
              "type": "uint256"
            }
          ],
          "internalType": "struct LuckyDraw.SpinInfo[]",
          "name": "",
          "type": "tuple[]"
        }
      ],
      "stateMutability": "view",
      "type": "function"
    },
    {
      "inputs": [],
      "name": "nft",
      "outputs": [
        {
          "internalType": "contract MysteryNFT",
          "name": "",
          "type": "address"
        }
      ],
      "stateMutability": "view",
      "type": "function"
    },
    {
      "inputs": [],
      "name": "owner",
      "outputs": [
        {
          "internalType": "address",
          "name": "",
          "type": "address"
        }
      ],
      "stateMutability": "view",
      "type": "function"
    },
    {
      "inputs": [
        {
          "internalType": "uint256",
          "name": "newPrice",
          "type": "uint256"
        }
      ],
      "name": "setPrice",
      "outputs": [],
      "stateMutability": "nonpayable",
      "type": "function"
    },
    {
      "inputs": [],
      "name": "spin",
      "outputs": [],
      "stateMutability": "payable",
      "type": "function"
    },
    {
      "inputs": [],
      "name": "token",
      "outputs": [
        {
          "internalType": "contract RewardToken",
          "name": "",
          "type": "address"
        }
      ],
      "stateMutability": "view",
      "type": "function"
    },
    {
      "inputs": [
        {
          "internalType": "address",
          "name": "",
          "type": "address"
        },
        {
          "internalType": "uint256",
          "name": "",
          "type": "uint256"
        }
      ],
      "name": "userSpins",
      "outputs": [
        {
          "internalType": "string",
          "name": "rewardType",
          "type": "string"
        },
        {
          "internalType": "uint256",
          "name": "amount",
          "type": "uint256"
        },
        {
          "internalType": "uint256",
          "name": "nftId",
          "type": "uint256"
        },
        {
          "internalType": "uint256",
          "name": "timestamp",
          "type": "uint256"
        }
      ],
      "stateMutability": "view",
      "type": "function"
    },
    {
      "inputs": [],
      "name": "withdraw",
      "outputs": [],
      "stateMutability": "nonpayable",
      "type": "function"
    }
  ],
  "bytecode": "0x608060405267016345785d8a000060025534801561001c57600080fd5b506040516120af3803806120af833981810160405281019061003e919061016a565b816000806101000a81548173ffffffffffffffffffffffffffffffffffffffff021916908373ffffffffffffffffffffffffffffffffffffffff16021790555080600160006101000a81548173ffffffffffffffffffffffffffffffffffffffff021916908373ffffffffffffffffffffffffffffffffffffffff16021790555033600360006101000a81548173ffffffffffffffffffffffffffffffffffffffff021916908373ffffffffffffffffffffffffffffffffffffffff16021790555050506101aa565b600080fd5b600073ffffffffffffffffffffffffffffffffffffffff82169050919050565b60006101378261010c565b9050919050565b6101478161012c565b811461015257600080fd5b50565b6000815190506101648161013e565b92915050565b6000806040838503121561018157610180610107565b5b600061018f85828601610155565b92505060206101a085828601610155565b9150509250929050565b611ef6806101b96000396000f3fe6080604052600436106100a75760003560e01c806398d5fdca1161006457806398d5fdca146101ab578063a2bdedf4146101d6578063a648285814610213578063d53cab661461023e578063f0acd7d51461027e578063fc0c546a14610288576100a7565b80633ccfd60b146100ac57806347ccca02146100c357806361ac0a99146100ee578063638b709a1461011a5780638da5cb5b1461015757806391b7f5ed14610182575b600080fd5b3480156100b857600080fd5b506100c16102b3565b005b3480156100cf57600080fd5b506100d86103ae565b6040516100e591906110c0565b60405180910390f35b3480156100fa57600080fd5b506101036103d4565b60405161011192919061143b565b60405180910390f35b34801561012657600080fd5b50610141600480360381019061013c91906114a3565b610681565b60405161014e9190611556565b60405180910390f35b34801561016357600080fd5b5061016c6107cf565b6040516101799190611587565b60405180910390f35b34801561018e57600080fd5b506101a960048036038101906101a491906115ce565b6107f5565b005b3480156101b757600080fd5b506101c061088f565b6040516101cd919061160a565b60405180910390f35b3480156101e257600080fd5b506101fd60048036038101906101f891906115ce565b610899565b60405161020a9190611587565b60405180910390f35b34801561021f57600080fd5b506102286108d8565b604051610235919061160a565b60405180910390f35b34801561024a57600080fd5b5061026560048036038101906102609190611625565b6108de565b60405161027594939291906116af565b60405180910390f35b6102866109b3565b005b34801561029457600080fd5b5061029d61101d565b6040516102aa919061171c565b60405180910390f35b600360009054906101000a900473ffffffffffffffffffffffffffffffffffffffff1673ffffffffffffffffffffffffffffffffffffffff163373ffffffffffffffffffffffffffffffffffffffff1614610343576040517f08c379a000000000000000000000000000000000000000000000000000000000815260040161033a90611783565b60405180910390fd5b600360009054906101000a900473ffffffffffffffffffffffffffffffffffffffff1673ffffffffffffffffffffffffffffffffffffffff166108fc479081150290604051600060405180830381858888f193505050501580156103ab573d6000803e3d6000fd5b50565b600160009054906101000a900473ffffffffffffffffffffffffffffffffffffffff1681565b606080600060058054905067ffffffffffffffff8111156103f8576103f76117a3565b5b60405190808252806020026020018201604052801561042b57816020015b60608152602001906001900390816104165790505b50905060005b6005805490508110156105ec576004600060058381548110610456576104556117d2565b5b9060005260206000200160009054906101000a900473ffffffffffffffffffffffffffffffffffffffff1673ffffffffffffffffffffffffffffffffffffffff1673ffffffffffffffffffffffffffffffffffffffff168152602001908152602001600020805480602002602001604051908101604052809291908181526020016000905b828210156105bd578382906000526020600020906004020160405180608001604052908160008201805461050e90611830565b80601f016020809104026020016040519081016040528092919081815260200182805461053a90611830565b80156105875780601f1061055c57610100808354040283529160200191610587565b820191906000526020600020905b81548152906001019060200180831161056a57829003601f168201915b505050505081526020016001820154815260200160028201548152602001600382015481525050815260200190600101906104db565b505050508282815181106105d4576105d36117d2565b5b60200260200101819052508080600101915050610431565b506005818180548060200260200160405190810160405280929190818152602001828054801561067157602002820191906000526020600020905b8160009054906101000a900473ffffffffffffffffffffffffffffffffffffffff1673ffffffffffffffffffffffffffffffffffffffff1681526020019060010190808311610627575b5050505050915092509250509091565b6060600460008373ffffffffffffffffffffffffffffffffffffffff1673ffffffffffffffffffffffffffffffffffffffff168152602001908152602001600020805480602002602001604051908101604052809291908181526020016000905b828210156107c4578382906000526020600020906004020160405180608001604052908160008201805461071590611830565b80601f016020809104026020016040519081016040528092919081815260200182805461074190611830565b801561078e5780601f106107635761010080835404028352916020019161078e565b820191906000526020600020905b81548152906001019060200180831161077157829003601f168201915b505050505081526020016001820154815260200160028201548152602001600382015481525050815260200190600101906106e2565b505050509050919050565b600360009054906101000a900473ffffffffffffffffffffffffffffffffffffffff1681565b600360009054906101000a900473ffffffffffffffffffffffffffffffffffffffff1673ffffffffffffffffffffffffffffffffffffffff163373ffffffffffffffffffffffffffffffffffffffff1614610885576040517f08c379a000000000000000000000000000000000000000000000000000000000815260040161087c90611783565b60405180910390fd5b8060028190555050565b6000600254905090565b600581815481106108a957600080fd5b906000526020600020016000915054906101000a900473ffffffffffffffffffffffffffffffffffffffff1681565b60025481565b600460205281600052604060002081815481106108fa57600080fd5b90600052602060002090600402016000915091505080600001805461091e90611830565b80601f016020809104026020016040519081016040528092919081815260200182805461094a90611830565b80156109975780601f1061096c57610100808354040283529160200191610997565b820191906000526020600020905b81548152906001019060200180831161097a57829003601f168201915b5050505050908060010154908060020154908060030154905084565b60025434146109f7576040517f08c379a00000000000000000000000000000000000000000000000000000000081526004016109ee906118ad565b60405180910390fd5b6000600460003373ffffffffffffffffffffffffffffffffffffffff1673ffffffffffffffffffffffffffffffffffffffff1681526020019081526020016000208054905003610aa5576005339080600181540180825580915050600190039060005260206000200160009091909190916101000a81548173ffffffffffffffffffffffffffffffffffffffff021916908373ffffffffffffffffffffffffffffffffffffffff1602179055505b6000606433424443604051602001610ac09493929190611936565b6040516020818303038152906040528051906020012060001c610ae391906119b3565b9050601e811015610c3c573373ffffffffffffffffffffffffffffffffffffffff167fff8e13e413cdd97258893657446fa4eaae96bb928c013d2ac08e4516986b4cc960008042604051610b3993929190611a6b565b60405180910390a2600460003373ffffffffffffffffffffffffffffffffffffffff1673ffffffffffffffffffffffffffffffffffffffff16815260200190815260200160002060405180608001604052806040518060400160405280600481526020017f6e6f6e6500000000000000000000000000000000000000000000000000000000815250815260200160008152602001600081526020014281525090806001815401808255809150506001900390600052602060002090600402016000909190919091506000820151816000019081610c169190611c57565b50602082015181600101556040820151816002015560608201518160030155505061101a565b6050811015610e2d576000674563918244f40000905060008054906101000a900473ffffffffffffffffffffffffffffffffffffffff1673ffffffffffffffffffffffffffffffffffffffff166340c10f1933836040518363ffffffff1660e01b8152600401610cad929190611d29565b600060405180830381600087803b158015610cc757600080fd5b505af1158015610cdb573d6000803e3d6000fd5b505050503373ffffffffffffffffffffffffffffffffffffffff167fff8e13e413cdd97258893657446fa4eaae96bb928c013d2ac08e4516986b4cc982600042604051610d2a93929190611d9e565b60405180910390a2600460003373ffffffffffffffffffffffffffffffffffffffff1673ffffffffffffffffffffffffffffffffffffffff16815260200190815260200160002060405180608001604052806040518060400160405280600581526020017f746f6b656e0000000000000000000000000000000000000000000000000000008152508152602001838152602001600081526020014281525090806001815401808255809150506001900390600052602060002090600402016000909190919091506000820151816000019081610e069190611c57565b50602082015181600101556040820151816002015560608201518160030155505050611019565b6000600160009054906101000a900473ffffffffffffffffffffffffffffffffffffffff1673ffffffffffffffffffffffffffffffffffffffff166354ba0f27336040518263ffffffff1660e01b8152600401610e8a9190611587565b6020604051808303816000875af1158015610ea9573d6000803e3d6000fd5b505050506040513d601f19601f82011682018060405250810190610ecd9190611dfd565b90503373ffffffffffffffffffffffffffffffffffffffff167fff8e13e413cdd97258893657446fa4eaae96bb928c013d2ac08e4516986b4cc960008342604051610f1a93929190611e76565b60405180910390a2600460003373ffffffffffffffffffffffffffffffffffffffff1673ffffffffffffffffffffffffffffffffffffffff16815260200190815260200160002060405180608001604052806040518060400160405280600381526020017f6e667400000000000000000000000000000000000000000000000000000000008152508152602001600081526020018381526020014281525090806001815401808255809150506001900390600052602060002090600402016000909190919091506000820151816000019081610ff69190611c57565b506020820151816001015560408201518160020155606082015181600301555050505b5b50565b60008054906101000a900473ffffffffffffffffffffffffffffffffffffffff1681565b600073ffffffffffffffffffffffffffffffffffffffff82169050919050565b6000819050919050565b600061108661108161107c84611041565b611061565b611041565b9050919050565b60006110988261106b565b9050919050565b60006110aa8261108d565b9050919050565b6110ba8161109f565b82525050565b60006020820190506110d560008301846110b1565b92915050565b600081519050919050565b600082825260208201905092915050565b6000819050602082019050919050565b600061111282611041565b9050919050565b61112281611107565b82525050565b60006111348383611119565b60208301905092915050565b6000602082019050919050565b6000611158826110db565b61116281856110e6565b935061116d836110f7565b8060005b8381101561119e5781516111858882611128565b975061119083611140565b925050600181019050611171565b5085935050505092915050565b600081519050919050565b600082825260208201905092915050565b6000819050602082019050919050565b600081519050919050565b600082825260208201905092915050565b6000819050602082019050919050565b600081519050919050565b600082825260208201905092915050565b60005b8381101561123d578082015181840152602081019050611222565b60008484015250505050565b6000601f19601f8301169050919050565b600061126582611203565b61126f818561120e565b935061127f81856020860161121f565b61128881611249565b840191505092915050565b6000819050919050565b6112a681611293565b82525050565b600060808301600083015184820360008601526112c9828261125a565b91505060208301516112de602086018261129d565b5060408301516112f1604086018261129d565b506060830151611304606086018261129d565b508091505092915050565b600061131b83836112ac565b905092915050565b6000602082019050919050565b600061133b826111d7565b61134581856111e2565b935083602082028501611357856111f3565b8060005b858110156113935784840389528151611374858261130f565b945061137f83611323565b925060208a0199505060018101905061135b565b50829750879550505050505092915050565b60006113b18383611330565b905092915050565b6000602082019050919050565b60006113d1826111ab565b6113db81856111b6565b9350836020820285016113ed856111c7565b8060005b85811015611429578484038952815161140a85826113a5565b9450611415836113b9565b925060208a019950506001810190506113f1565b50829750879550505050505092915050565b60006040820190508181036000830152611455818561114d565b9050818103602083015261146981846113c6565b90509392505050565b600080fd5b61148081611107565b811461148b57600080fd5b50565b60008135905061149d81611477565b92915050565b6000602082840312156114b9576114b8611472565b5b60006114c78482850161148e565b91505092915050565b600082825260208201905092915050565b60006114ec826111d7565b6114f681856114d0565b935083602082028501611508856111f3565b8060005b858110156115445784840389528151611525858261130f565b945061153083611323565b925060208a0199505060018101905061150c565b50829750879550505050505092915050565b6000602082019050818103600083015261157081846114e1565b905092915050565b61158181611107565b82525050565b600060208201905061159c6000830184611578565b92915050565b6115ab81611293565b81146115b657600080fd5b50565b6000813590506115c8816115a2565b92915050565b6000602082840312156115e4576115e3611472565b5b60006115f2848285016115b9565b91505092915050565b61160481611293565b82525050565b600060208201905061161f60008301846115fb565b92915050565b6000806040838503121561163c5761163b611472565b5b600061164a8582860161148e565b925050602061165b858286016115b9565b9150509250929050565b600082825260208201905092915050565b600061168182611203565b61168b8185611665565b935061169b81856020860161121f565b6116a481611249565b840191505092915050565b600060808201905081810360008301526116c98187611676565b90506116d860208301866115fb565b6116e560408301856115fb565b6116f260608301846115fb565b95945050505050565b60006117068261108d565b9050919050565b611716816116fb565b82525050565b6000602082019050611731600083018461170d565b92915050565b7f6e6f74206f776e65720000000000000000000000000000000000000000000000600082015250565b600061176d600983611665565b915061177882611737565b602082019050919050565b6000602082019050818103600083015261179c81611760565b9050919050565b7f4e487b7100000000000000000000000000000000000000000000000000000000600052604160045260246000fd5b7f4e487b7100000000000000000000000000000000000000000000000000000000600052603260045260246000fd5b7f4e487b7100000000000000000000000000000000000000000000000000000000600052602260045260246000fd5b6000600282049050600182168061184857607f821691505b60208210810361185b5761185a611801565b5b50919050565b7f696e76616c696420707269636500000000000000000000000000000000000000600082015250565b6000611897600d83611665565b91506118a282611861565b602082019050919050565b600060208201905081810360008301526118c68161188a565b9050919050565b60008160601b9050919050565b60006118e5826118cd565b9050919050565b60006118f7826118da565b9050919050565b61190f61190a82611107565b6118ec565b82525050565b6000819050919050565b61193061192b82611293565b611915565b82525050565b600061194282876118fe565b601482019150611952828661191f565b602082019150611962828561191f565b602082019150611972828461191f565b60208201915081905095945050505050565b7f4e487b7100000000000000000000000000000000000000000000000000000000600052601260045260246000fd5b60006119be82611293565b91506119c983611293565b9250826119d9576119d8611984565b5b828206905092915050565b7f6e6f6e6500000000000000000000000000000000000000000000000000000000600082015250565b6000611a1a600483611665565b9150611a25826119e4565b602082019050919050565b6000819050919050565b6000611a55611a50611a4b84611a30565b611061565b611293565b9050919050565b611a6581611a3a565b82525050565b60006080820190508181036000830152611a8481611a0d565b9050611a936020830186611a5c565b611aa06040830185611a5c565b611aad60608301846115fb565b949350505050565b60008190508160005260206000209050919050565b60006020601f8301049050919050565b600082821b905092915050565b600060088302611b177fffffffffffffffffffffffffffffffffffffffffffffffffffffffffffffffff82611ada565b611b218683611ada565b95508019841693508086168417925050509392505050565b6000611b54611b4f611b4a84611293565b611061565b611293565b9050919050565b6000819050919050565b611b6e83611b39565b611b82611b7a82611b5b565b848454611ae7565b825550505050565b600090565b611b97611b8a565b611ba2818484611b65565b505050565b5b81811015611bc657611bbb600082611b8f565b600181019050611ba8565b5050565b601f821115611c0b57611bdc81611ab5565b611be584611aca565b81016020851015611bf4578190505b611c08611c0085611aca565b830182611ba7565b50505b505050565b600082821c905092915050565b6000611c2e60001984600802611c10565b1980831691505092915050565b6000611c478383611c1d565b9150826002028217905092915050565b611c6082611203565b67ffffffffffffffff811115611c7957611c786117a3565b5b611c838254611830565b611c8e828285611bca565b600060209050601f831160018114611cc15760008415611caf578287015190505b611cb98582611c3b565b865550611d21565b601f198416611ccf86611ab5565b60005b82811015611cf757848901518255600182019150602085019450602081019050611cd2565b86831015611d145784890151611d10601f891682611c1d565b8355505b6001600288020188555050505b505050505050565b6000604082019050611d3e6000830185611578565b611d4b60208301846115fb565b9392505050565b7f746f6b656e000000000000000000000000000000000000000000000000000000600082015250565b6000611d88600583611665565b9150611d9382611d52565b602082019050919050565b60006080820190508181036000830152611db781611d7b565b9050611dc660208301866115fb565b611dd36040830185611a5c565b611de060608301846115fb565b949350505050565b600081519050611df7816115a2565b92915050565b600060208284031215611e1357611e12611472565b5b6000611e2184828501611de8565b91505092915050565b7f6e66740000000000000000000000000000000000000000000000000000000000600082015250565b6000611e60600383611665565b9150611e6b82611e2a565b602082019050919050565b60006080820190508181036000830152611e8f81611e53565b9050611e9e6020830186611a5c565b611eab60408301856115fb565b611eb860608301846115fb565b94935050505056fea264697066735822122079881c193dfe92a1d585e436c2d30b3e5bf9f214bb5d66e914dccca017ad90c264736f6c634300081c0033",
  "linkReferences": {},
  "deployedLinkReferences": {}
}