{
  "_format": "hh-sol-artifact-1",
  "contractName": "LuckyDraw",
  "sourceName": "contracts/LuckyDraw.sol",
  "abi": [
    {
      "inputs": [
        {
          "internalType": "address",
          "name": "tokenAddr",
          "type": "address"
        },
        {
          "internalType": "address",
          "name": "nftAddr",
          "type": "address"
        }
      ],
      "stateMutability": "nonpayable",
      "type": "constructor"
    },
    {
      "anonymous": false,
      "inputs": [
        {
          "indexed": true,
          "internalType": "address",
          "name": "user",
          "type": "address"
        },
        {
          "indexed": false,
          "internalType": "string",
          "name": "rewardType",
          "type": "string"
        },
        {
          "indexed": false,
          "internalType": "uint256",
          "name": "amount",
          "type": "uint256"
        },
        {
          "indexed": false,
          "internalType": "uint256",
          "name": "nftId",
          "type": "uint256"
        },
        {
          "indexed": false,
          "internalType": "uint256",
          "name": "timestamp",
          "type": "uint256"
        }
      ],
      "name": "SpinResult",
      "type": "event"
    },
    {
      "inputs": [],
      "name": "boxPrice",
      "outputs": [
        {
          "internalType": "uint256",
          "name": "",
          "type": "uint256"
        }
      ],
      "stateMutability": "view",
      "type": "function"
    },
    {
      "inputs": [],
      "name": "getPrice",
      "outputs": [
        {
          "internalType": "uint256",
          "name": "",
          "type": "uint256"
        }
      ],
      "stateMutability": "view",
      "type": "function"
    },
    {
      "inputs": [],
      "name": "nft",
      "outputs": [
        {
          "internalType": "contract MysteryNFT",
          "name": "",
          "type": "address"
        }
      ],
      "stateMutability": "view",
      "type": "function"
    },
    {
      "inputs": [],
      "name": "owner",
      "outputs": [
        {
          "internalType": "address",
          "name": "",
          "type": "address"
        }
      ],
      "stateMutability": "view",
      "type": "function"
    },
    {
      "inputs": [
        {
          "internalType": "uint256",
          "name": "newPrice",
          "type": "uint256"
        }
      ],
      "name": "setPrice",
      "outputs": [],
      "stateMutability": "nonpayable",
      "type": "function"
    },
    {
      "inputs": [],
      "name": "spin",
      "outputs": [],
      "stateMutability": "payable",
      "type": "function"
    },
    {
      "inputs": [],
      "name": "token",
      "outputs": [
        {
          "internalType": "contract RewardToken",
          "name": "",
          "type": "address"
        }
      ],
      "stateMutability": "view",
      "type": "function"
    },
    {
      "inputs": [],
      "name": "withdraw",
      "outputs": [],
      "stateMutability": "nonpayable",
      "type": "function"
    }
  ],
  "bytecode": "0x608060405267016345785d8a000060025534801561001c57600080fd5b50604051610e8d380380610e8d833981810160405281019061003e919061016a565b816000806101000a81548173ffffffffffffffffffffffffffffffffffffffff021916908373ffffffffffffffffffffffffffffffffffffffff16021790555080600160006101000a81548173ffffffffffffffffffffffffffffffffffffffff021916908373ffffffffffffffffffffffffffffffffffffffff16021790555033600360006101000a81548173ffffffffffffffffffffffffffffffffffffffff021916908373ffffffffffffffffffffffffffffffffffffffff16021790555050506101aa565b600080fd5b600073ffffffffffffffffffffffffffffffffffffffff82169050919050565b60006101378261010c565b9050919050565b6101478161012c565b811461015257600080fd5b50565b6000815190506101648161013e565b92915050565b6000806040838503121561018157610180610107565b5b600061018f85828601610155565b92505060206101a085828601610155565b9150509250929050565b610cd4806101b96000396000f3fe60806040526004361061007b5760003560e01c806398d5fdca1161004e57806398d5fdca14610116578063a648285814610141578063f0acd7d51461016c578063fc0c546a146101765761007b565b80633ccfd60b1461008057806347ccca02146100975780638da5cb5b146100c257806391b7f5ed146100ed575b600080fd5b34801561008c57600080fd5b506100956101a1565b005b3480156100a357600080fd5b506100ac61029c565b6040516100b99190610711565b60405180910390f35b3480156100ce57600080fd5b506100d76102c2565b6040516100e4919061074d565b60405180910390f35b3480156100f957600080fd5b50610114600480360381019061010f91906107a3565b6102e8565b005b34801561012257600080fd5b5061012b610382565b60405161013891906107df565b60405180910390f35b34801561014d57600080fd5b5061015661038c565b60405161016391906107df565b60405180910390f35b610174610392565b005b34801561018257600080fd5b5061018b61066e565b604051610198919061081b565b60405180910390f35b600360009054906101000a900473ffffffffffffffffffffffffffffffffffffffff1673ffffffffffffffffffffffffffffffffffffffff163373ffffffffffffffffffffffffffffffffffffffff1614610231576040517f08c379a000000000000000000000000000000000000000000000000000000000815260040161022890610893565b60405180910390fd5b600360009054906101000a900473ffffffffffffffffffffffffffffffffffffffff1673ffffffffffffffffffffffffffffffffffffffff166108fc479081150290604051600060405180830381858888f19350505050158015610299573d6000803e3d6000fd5b50565b600160009054906101000a900473ffffffffffffffffffffffffffffffffffffffff1681565b600360009054906101000a900473ffffffffffffffffffffffffffffffffffffffff1681565b600360009054906101000a900473ffffffffffffffffffffffffffffffffffffffff1673ffffffffffffffffffffffffffffffffffffffff163373ffffffffffffffffffffffffffffffffffffffff1614610378576040517f08c379a000000000000000000000000000000000000000000000000000000000815260040161036f90610893565b60405180910390fd5b8060028190555050565b6000600254905090565b60025481565b60025434146103d6576040517f08c379a00000000000000000000000000000000000000000000000000000000081526004016103cd906108ff565b60405180910390fd5b60006064334244436040516020016103f19493929190610988565b6040516020818303038152906040528051906020012060001c6104149190610a05565b90506032811015610477573373ffffffffffffffffffffffffffffffffffffffff167fff8e13e413cdd97258893657446fa4eaae96bb928c013d2ac08e4516986b4cc96000804260405161046a93929190610abd565b60405180910390a261066b565b6050811015610573576000674563918244f40000905060008054906101000a900473ffffffffffffffffffffffffffffffffffffffff1673ffffffffffffffffffffffffffffffffffffffff166340c10f1933836040518363ffffffff1660e01b81526004016104e8929190610b07565b600060405180830381600087803b15801561050257600080fd5b505af1158015610516573d6000803e3d6000fd5b505050503373ffffffffffffffffffffffffffffffffffffffff167fff8e13e413cdd97258893657446fa4eaae96bb928c013d2ac08e4516986b4cc98260004260405161056593929190610b7c565b60405180910390a25061066a565b6000600160009054906101000a900473ffffffffffffffffffffffffffffffffffffffff1673ffffffffffffffffffffffffffffffffffffffff166354ba0f27336040518263ffffffff1660e01b81526004016105d0919061074d565b6020604051808303816000875af11580156105ef573d6000803e3d6000fd5b505050506040513d601f19601f820116820180604052508101906106139190610bdb565b90503373ffffffffffffffffffffffffffffffffffffffff167fff8e13e413cdd97258893657446fa4eaae96bb928c013d2ac08e4516986b4cc96000834260405161066093929190610c54565b60405180910390a2505b5b50565b60008054906101000a900473ffffffffffffffffffffffffffffffffffffffff1681565b600073ffffffffffffffffffffffffffffffffffffffff82169050919050565b6000819050919050565b60006106d76106d26106cd84610692565b6106b2565b610692565b9050919050565b60006106e9826106bc565b9050919050565b60006106fb826106de565b9050919050565b61070b816106f0565b82525050565b60006020820190506107266000830184610702565b92915050565b600061073782610692565b9050919050565b6107478161072c565b82525050565b6000602082019050610762600083018461073e565b92915050565b600080fd5b6000819050919050565b6107808161076d565b811461078b57600080fd5b50565b60008135905061079d81610777565b92915050565b6000602082840312156107b9576107b8610768565b5b60006107c78482850161078e565b91505092915050565b6107d98161076d565b82525050565b60006020820190506107f460008301846107d0565b92915050565b6000610805826106de565b9050919050565b610815816107fa565b82525050565b6000602082019050610830600083018461080c565b92915050565b600082825260208201905092915050565b7f6e6f74206f776e65720000000000000000000000000000000000000000000000600082015250565b600061087d600983610836565b915061088882610847565b602082019050919050565b600060208201905081810360008301526108ac81610870565b9050919050565b7f696e76616c696420707269636500000000000000000000000000000000000000600082015250565b60006108e9600d83610836565b91506108f4826108b3565b602082019050919050565b60006020820190508181036000830152610918816108dc565b9050919050565b60008160601b9050919050565b60006109378261091f565b9050919050565b60006109498261092c565b9050919050565b61096161095c8261072c565b61093e565b82525050565b6000819050919050565b61098261097d8261076d565b610967565b82525050565b60006109948287610950565b6014820191506109a48286610971565b6020820191506109b48285610971565b6020820191506109c48284610971565b60208201915081905095945050505050565b7f4e487b7100000000000000000000000000000000000000000000000000000000600052601260045260246000fd5b6000610a108261076d565b9150610a1b8361076d565b925082610a2b57610a2a6109d6565b5b828206905092915050565b7f6e6f6e6500000000000000000000000000000000000000000000000000000000600082015250565b6000610a6c600483610836565b9150610a7782610a36565b602082019050919050565b6000819050919050565b6000610aa7610aa2610a9d84610a82565b6106b2565b61076d565b9050919050565b610ab781610a8c565b82525050565b60006080820190508181036000830152610ad681610a5f565b9050610ae56020830186610aae565b610af26040830185610aae565b610aff60608301846107d0565b949350505050565b6000604082019050610b1c600083018561073e565b610b2960208301846107d0565b9392505050565b7f746f6b656e000000000000000000000000000000000000000000000000000000600082015250565b6000610b66600583610836565b9150610b7182610b30565b602082019050919050565b60006080820190508181036000830152610b9581610b59565b9050610ba460208301866107d0565b610bb16040830185610aae565b610bbe60608301846107d0565b949350505050565b600081519050610bd581610777565b92915050565b600060208284031215610bf157610bf0610768565b5b6000610bff84828501610bc6565b91505092915050565b7f6e66740000000000000000000000000000000000000000000000000000000000600082015250565b6000610c3e600383610836565b9150610c4982610c08565b602082019050919050565b60006080820190508181036000830152610c6d81610c31565b9050610c7c6020830186610aae565b610c8960408301856107d0565b610c9660608301846107d0565b94935050505056fea2646970667358221220c737324be385f02e3f46c01d1863bce5ce81771810e69e66d3e57a83cca5f07364736f6c634300081c0033",
  "linkReferences": {},
  "deployedLinkReferences": {}
}