{
  "_format": "hh-sol-artifact-1",
  "contractName": "MysteryNFT",
  "sourceName": "contracts/MysteryNFT.sol",
  "abi": [
    {
      "inputs": [],
      "stateMutability": "nonpayable",
      "type": "constructor"
    },
    {
      "inputs": [
        {
          "internalType": "address",
          "name": "sender",
          "type": "address"
        },
        {
          "internalType": "uint256",
          "name": "tokenId",
          "type": "uint256"
        },
        {
          "internalType": "address",
          "name": "owner",
          "type": "address"
        }
      ],
      "name": "ERC721IncorrectOwner",
      "type": "error"
    },
    {
      "inputs": [
        {
          "internalType": "address",
          "name": "operator",
          "type": "address"
        },
        {
          "internalType": "uint256",
          "name": "tokenId",
          "type": "uint256"
        }
      ],
      "name": "ERC721InsufficientApproval",
      "type": "error"
    },
    {
      "inputs": [
        {
          "internalType": "address",
          "name": "approver",
          "type": "address"
        }
      ],
      "name": "ERC721InvalidApprover",
      "type": "error"
    },
    {
      "inputs": [
        {
          "internalType": "address",
          "name": "operator",
          "type": "address"
        }
      ],
      "name": "ERC721InvalidOperator",
      "type": "error"
    },
    {
      "inputs": [
        {
          "internalType": "address",
          "name": "owner",
          "type": "address"
        }
      ],
      "name": "ERC721InvalidOwner",
      "type": "error"
    },
    {
      "inputs": [
        {
          "internalType": "address",
          "name": "receiver",
          "type": "address"
        }
      ],
      "name": "ERC721InvalidReceiver",
      "type": "error"
    },
    {
      "inputs": [
        {
          "internalType": "address",
          "name": "sender",
          "type": "address"
        }
      ],
      "name": "ERC721InvalidSender",
      "type": "error"
    },
    {
      "inputs": [
        {
          "internalType": "uint256",
          "name": "tokenId",
          "type": "uint256"
        }
      ],
      "name": "ERC721NonexistentToken",
      "type": "error"
    },
    {
      "anonymous": false,
      "inputs": [
        {
          "indexed": true,
          "internalType": "address",
          "name": "owner",
          "type": "address"
        },
        {
          "indexed": true,
          "internalType": "address",
          "name": "approved",
          "type": "address"
        },
        {
          "indexed": true,
          "internalType": "uint256",
          "name": "tokenId",
          "type": "uint256"
        }
      ],
      "name": "Approval",
      "type": "event"
    },
    {
      "anonymous": false,
      "inputs": [
        {
          "indexed": true,
          "internalType": "address",
          "name": "owner",
          "type": "address"
        },
        {
          "indexed": true,
          "internalType": "address",
          "name": "operator",
          "type": "address"
        },
        {
          "indexed": false,
          "internalType": "bool",
          "name": "approved",
          "type": "bool"
        }
      ],
      "name": "ApprovalForAll",
      "type": "event"
    },
    {
      "anonymous": false,
      "inputs": [
        {
          "indexed": true,
          "internalType": "address",
          "name": "from",
          "type": "address"
        },
        {
          "indexed": true,
          "internalType": "address",
          "name": "to",
          "type": "address"
        },
        {
          "indexed": true,
          "internalType": "uint256",
          "name": "tokenId",
          "type": "uint256"
        }
      ],
      "name": "Transfer",
      "type": "event"
    },
    {
      "inputs": [
        {
          "internalType": "address",
          "name": "to",
          "type": "address"
        },
        {
          "internalType": "uint256",
          "name": "tokenId",
          "type": "uint256"
        }
      ],
      "name": "approve",
      "outputs": [],
      "stateMutability": "nonpayable",
      "type": "function"
    },
    {
      "inputs": [
        {
          "internalType": "address",
          "name": "owner",
          "type": "address"
        }
      ],
      "name": "balanceOf",
      "outputs": [
        {
          "internalType": "uint256",
          "name": "",
          "type": "uint256"
        }
      ],
      "stateMutability": "view",
      "type": "function"
    },
    {
      "inputs": [
        {
          "internalType": "uint256",
          "name": "tokenId",
          "type": "uint256"
        }
      ],
      "name": "getApproved",
      "outputs": [
        {
          "internalType": "address",
          "name": "",
          "type": "address"
        }
      ],
      "stateMutability": "view",
      "type": "function"
    },
    {
      "inputs": [
        {
          "internalType": "address",
          "name": "owner",
          "type": "address"
        },
        {
          "internalType": "address",
          "name": "operator",
          "type": "address"
        }
      ],
      "name": "isApprovedForAll",
      "outputs": [
        {
          "internalType": "bool",
          "name": "",
          "type": "bool"
        }
      ],
      "stateMutability": "view",
      "type": "function"
    },
    {
      "inputs": [
        {
          "internalType": "address",
          "name": "to",
          "type": "address"
        }
      ],
      "name": "mintNFT",
      "outputs": [
        {
          "internalType": "uint256",
          "name": "",
          "type": "uint256"
        }
      ],
      "stateMutability": "nonpayable",
      "type": "function"
    },
    {
      "inputs": [],
      "name": "name",
      "outputs": [
        {
          "internalType": "string",
          "name": "",
          "type": "string"
        }
      ],
      "stateMutability": "view",
      "type": "function"
    },
    {
      "inputs": [
        {
          "internalType": "uint256",
          "name": "tokenId",
          "type": "uint256"
        }
      ],
      "name": "ownerOf",
      "outputs": [
        {
          "internalType": "address",
          "name": "",
          "type": "address"
        }
      ],
      "stateMutability": "view",
      "type": "function"
    },
    {
      "inputs": [
        {
          "internalType": "address",
          "name": "from",
          "type": "address"
        },
        {
          "internalType": "address",
          "name": "to",
          "type": "address"
        },
        {
          "internalType": "uint256",
          "name": "tokenId",
          "type": "uint256"
        }
      ],
      "name": "safeTransferFrom",
      "outputs": [],
      "stateMutability": "nonpayable",
      "type": "function"
    },
    {
      "inputs": [
        {
          "internalType": "address",
          "name": "from",
          "type": "address"
        },
        {
          "internalType": "address",
          "name": "to",
          "type": "address"
        },
        {
          "internalType": "uint256",
          "name": "tokenId",
          "type": "uint256"
        },
        {
          "internalType": "bytes",
          "name": "data",
          "type": "bytes"
        }
      ],
      "name": "safeTransferFrom",
      "outputs": [],
      "stateMutability": "nonpayable",
      "type": "function"
    },
    {
      "inputs": [
        {
          "internalType": "address",
          "name": "operator",
          "type": "address"
        },
        {
          "internalType": "bool",
          "name": "approved",
          "type": "bool"
        }
      ],
      "name": "setApprovalForAll",
      "outputs": [],
      "stateMutability": "nonpayable",
      "type": "function"
    },
    {
      "inputs": [
        {
          "internalType": "bytes4",
          "name": "interfaceId",
          "type": "bytes4"
        }
      ],
      "name": "supportsInterface",
      "outputs": [
        {
          "internalType": "bool",
          "name": "",
          "type": "bool"
        }
      ],
      "stateMutability": "view",
      "type": "function"
    },
    {
      "inputs": [],
      "name": "symbol",
      "outputs": [
        {
          "internalType": "string",
          "name": "",
          "type": "string"
        }
      ],
      "stateMutability": "view",
      "type": "function"
    },
    {
      "inputs": [
        {
          "internalType": "uint256",
          "name": "tokenId",
          "type": "uint256"
        }
      ],
      "name": "tokenURI",
      "outputs": [
        {
          "internalType": "string",
          "name": "",
          "type": "string"
        }
      ],
      "stateMutability": "view",
      "type": "function"
    },
    {
      "inputs": [
        {
          "internalType": "address",
          "name": "from",
          "type": "address"
        },
        {
          "internalType": "address",
          "name": "to",
          "type": "address"
        },
        {
          "internalType": "uint256",
          "name": "tokenId",
          "type": "uint256"
        }
      ],
      "name": "transferFrom",
      "outputs": [],
      "stateMutability": "nonpayable",
      "type": "function"
    }
  ],
  "bytecode": "0x608060405234801561001057600080fd5b506040518060400160405280600a81526020017f4d7973746572794e4654000000000000000000000000000000000000000000008152506040518060400160405280600481526020017f4d4e465400000000000000000000000000000000000000000000000000000000815250816000908161008c91906102f4565b50806001908161009c91906102f4565b5050506103c6565b600081519050919050565b7f4e487b7100000000000000000000000000000000000000000000000000000000600052604160045260246000fd5b7f4e487b7100000000000000000000000000000000000000000000000000000000600052602260045260246000fd5b6000600282049050600182168061012557607f821691505b602082108103610138576101376100de565b5b50919050565b60008190508160005260206000209050919050565b60006020601f8301049050919050565b600082821b905092915050565b6000600883026101a07fffffffffffffffffffffffffffffffffffffffffffffffffffffffffffffffff82610163565b6101aa8683610163565b95508019841693508086168417925050509392505050565b6000819050919050565b6000819050919050565b60006101f16101ec6101e7846101c2565b6101cc565b6101c2565b9050919050565b6000819050919050565b61020b836101d6565b61021f610217826101f8565b848454610170565b825550505050565b600090565b610234610227565b61023f818484610202565b505050565b5b818110156102635761025860008261022c565b600181019050610245565b5050565b601f8211156102a8576102798161013e565b61028284610153565b81016020851015610291578190505b6102a561029d85610153565b830182610244565b50505b505050565b600082821c905092915050565b60006102cb600019846008026102ad565b1980831691505092915050565b60006102e483836102ba565b9150826002028217905092915050565b6102fd826100a4565b67ffffffffffffffff811115610316576103156100af565b5b610320825461010d565b61032b828285610267565b600060209050601f83116001811461035e576000841561034c578287015190505b61035685826102d8565b8655506103be565b601f19841661036c8661013e565b60005b828110156103945784890151825560018201915060208501945060208101905061036f565b868310156103b157848901516103ad601f8916826102ba565b8355505b6001600288020188555050505b505050505050565b611e5b806103d56000396000f3fe608060405234801561001057600080fd5b50600436106100ea5760003560e01c80636352211e1161008c578063a22cb46511610066578063a22cb4651461026f578063b88d4fde1461028b578063c87b56dd146102a7578063e985e9c5146102d7576100ea565b80636352211e146101f157806370a082311461022157806395d89b4114610251576100ea565b8063095ea7b3116100c8578063095ea7b31461016d57806323b872dd1461018957806342842e0e146101a557806354ba0f27146101c1576100ea565b806301ffc9a7146100ef57806306fdde031461011f578063081812fc1461013d575b600080fd5b61010960048036038101906101049190611642565b610307565b604051610116919061168a565b60405180910390f35b6101276103e9565b6040516101349190611735565b60405180910390f35b6101576004803603810190610152919061178d565b61047b565b60405161016491906117fb565b60405180910390f35b61018760048036038101906101829190611842565b610497565b005b6101a3600480360381019061019e9190611882565b6104ad565b005b6101bf60048036038101906101ba9190611882565b6105af565b005b6101db60048036038101906101d691906118d5565b6105cf565b6040516101e89190611911565b60405180910390f35b61020b6004803603810190610206919061178d565b610605565b60405161021891906117fb565b60405180910390f35b61023b600480360381019061023691906118d5565b610617565b6040516102489190611911565b60405180910390f35b6102596106d1565b6040516102669190611735565b60405180910390f35b61028960048036038101906102849190611958565b610763565b005b6102a560048036038101906102a09190611acd565b610779565b005b6102c160048036038101906102bc919061178d565b61079e565b6040516102ce9190611735565b60405180910390f35b6102f160048036038101906102ec9190611b50565b610807565b6040516102fe919061168a565b60405180910390f35b60007f80ac58cd000000000000000000000000000000000000000000000000000000007bffffffffffffffffffffffffffffffffffffffffffffffffffffffff1916827bffffffffffffffffffffffffffffffffffffffffffffffffffffffff191614806103d257507f5b5e139f000000000000000000000000000000000000000000000000000000007bffffffffffffffffffffffffffffffffffffffffffffffffffffffff1916827bffffffffffffffffffffffffffffffffffffffffffffffffffffffff1916145b806103e257506103e18261089b565b5b9050919050565b6060600080546103f890611bbf565b80601f016020809104026020016040519081016040528092919081815260200182805461042490611bbf565b80156104715780601f1061044657610100808354040283529160200191610471565b820191906000526020600020905b81548152906001019060200180831161045457829003601f168201915b5050505050905090565b600061048682610905565b506104908261098d565b9050919050565b6104a982826104a46109ca565b6109d2565b5050565b600073ffffffffffffffffffffffffffffffffffffffff168273ffffffffffffffffffffffffffffffffffffffff160361051f5760006040517f64a0ae9200000000000000000000000000000000000000000000000000000000815260040161051691906117fb565b60405180910390fd5b6000610533838361052e6109ca565b6109e4565b90508373ffffffffffffffffffffffffffffffffffffffff168173ffffffffffffffffffffffffffffffffffffffff16146105a9578382826040517f64283d7b0000000000000000000000000000000000000000000000000000000081526004016105a093929190611bf0565b60405180910390fd5b50505050565b6105ca83838360405180602001604052806000815250610779565b505050565b60006001600660008282546105e49190611c56565b92505081905550600060065490506105fc8382610bfe565b80915050919050565b600061061082610905565b9050919050565b60008073ffffffffffffffffffffffffffffffffffffffff168273ffffffffffffffffffffffffffffffffffffffff160361068a5760006040517f89c62b6400000000000000000000000000000000000000000000000000000000815260040161068191906117fb565b60405180910390fd5b600360008373ffffffffffffffffffffffffffffffffffffffff1673ffffffffffffffffffffffffffffffffffffffff168152602001908152602001600020549050919050565b6060600180546106e090611bbf565b80601f016020809104026020016040519081016040528092919081815260200182805461070c90611bbf565b80156107595780601f1061072e57610100808354040283529160200191610759565b820191906000526020600020905b81548152906001019060200180831161073c57829003601f168201915b5050505050905090565b61077561076e6109ca565b8383610cf7565b5050565b6107848484846104ad565b61079861078f6109ca565b85858585610e66565b50505050565b60606107a982610905565b5060006107b4611017565b905060008151116107d457604051806020016040528060008152506107ff565b806107de8461102e565b6040516020016107ef929190611cc6565b6040516020818303038152906040525b915050919050565b6000600560008473ffffffffffffffffffffffffffffffffffffffff1673ffffffffffffffffffffffffffffffffffffffff16815260200190815260200160002060008373ffffffffffffffffffffffffffffffffffffffff1673ffffffffffffffffffffffffffffffffffffffff16815260200190815260200160002060009054906101000a900460ff16905092915050565b60007f01ffc9a7000000000000000000000000000000000000000000000000000000007bffffffffffffffffffffffffffffffffffffffffffffffffffffffff1916827bffffffffffffffffffffffffffffffffffffffffffffffffffffffff1916149050919050565b600080610911836110fc565b9050600073ffffffffffffffffffffffffffffffffffffffff168173ffffffffffffffffffffffffffffffffffffffff160361098457826040517f7e27328900000000000000000000000000000000000000000000000000000000815260040161097b9190611911565b60405180910390fd5b80915050919050565b60006004600083815260200190815260200160002060009054906101000a900473ffffffffffffffffffffffffffffffffffffffff169050919050565b600033905090565b6109df8383836001611139565b505050565b6000806109f0846110fc565b9050600073ffffffffffffffffffffffffffffffffffffffff168373ffffffffffffffffffffffffffffffffffffffff1614610a3257610a318184866112fe565b5b600073ffffffffffffffffffffffffffffffffffffffff168173ffffffffffffffffffffffffffffffffffffffff1614610ac357610a74600085600080611139565b6001600360008373ffffffffffffffffffffffffffffffffffffffff1673ffffffffffffffffffffffffffffffffffffffff168152602001908152602001600020600082825403925050819055505b600073ffffffffffffffffffffffffffffffffffffffff168573ffffffffffffffffffffffffffffffffffffffff1614610b46576001600360008773ffffffffffffffffffffffffffffffffffffffff1673ffffffffffffffffffffffffffffffffffffffff168152602001908152602001600020600082825401925050819055505b846002600086815260200190815260200160002060006101000a81548173ffffffffffffffffffffffffffffffffffffffff021916908373ffffffffffffffffffffffffffffffffffffffff160217905550838573ffffffffffffffffffffffffffffffffffffffff168273ffffffffffffffffffffffffffffffffffffffff167fddf252ad1be2c89b69c2b068fc378daa952ba7f163c4a11628f55a4df523b3ef60405160405180910390a4809150509392505050565b600073ffffffffffffffffffffffffffffffffffffffff168273ffffffffffffffffffffffffffffffffffffffff1603610c705760006040517f64a0ae92000000000000000000000000000000000000000000000000000000008152600401610c6791906117fb565b60405180910390fd5b6000610c7e838360006109e4565b9050600073ffffffffffffffffffffffffffffffffffffffff168173ffffffffffffffffffffffffffffffffffffffff1614610cf25760006040517f73c6ac6e000000000000000000000000000000000000000000000000000000008152600401610ce991906117fb565b60405180910390fd5b505050565b600073ffffffffffffffffffffffffffffffffffffffff168273ffffffffffffffffffffffffffffffffffffffff1603610d6857816040517f5b08ba18000000000000000000000000000000000000000000000000000000008152600401610d5f91906117fb565b60405180910390fd5b80600560008573ffffffffffffffffffffffffffffffffffffffff1673ffffffffffffffffffffffffffffffffffffffff16815260200190815260200160002060008473ffffffffffffffffffffffffffffffffffffffff1673ffffffffffffffffffffffffffffffffffffffff16815260200190815260200160002060006101000a81548160ff0219169083151502179055508173ffffffffffffffffffffffffffffffffffffffff168373ffffffffffffffffffffffffffffffffffffffff167f17307eab39ab6107e8899845ad3d59bd9653f200f220920489ca2b5937696c3183604051610e59919061168a565b60405180910390a3505050565b60008373ffffffffffffffffffffffffffffffffffffffff163b1115611010578273ffffffffffffffffffffffffffffffffffffffff1663150b7a02868685856040518563ffffffff1660e01b8152600401610ec59493929190611d3f565b6020604051808303816000875af1925050508015610f0157506040513d601f19601f82011682018060405250810190610efe9190611da0565b60015b610f85573d8060008114610f31576040519150601f19603f3d011682016040523d82523d6000602084013e610f36565b606091505b506000815103610f7d57836040517f64a0ae92000000000000000000000000000000000000000000000000000000008152600401610f7491906117fb565b60405180910390fd5b805160208201fd5b63150b7a0260e01b7bffffffffffffffffffffffffffffffffffffffffffffffffffffffff1916817bffffffffffffffffffffffffffffffffffffffffffffffffffffffff19161461100e57836040517f64a0ae9200000000000000000000000000000000000000000000000000000000815260040161100591906117fb565b60405180910390fd5b505b5050505050565b606060405180602001604052806000815250905090565b60606000600161103d846113c2565b01905060008167ffffffffffffffff81111561105c5761105b6119a2565b5b6040519080825280601f01601f19166020018201604052801561108e5781602001600182028036833780820191505090505b509050600082602083010190505b6001156110f1578080600190039150507f3031323334353637383961626364656600000000000000000000000000000000600a86061a8153600a85816110e5576110e4611dcd565b5b0494506000850361109c575b819350505050919050565b60006002600083815260200190815260200160002060009054906101000a900473ffffffffffffffffffffffffffffffffffffffff169050919050565b80806111725750600073ffffffffffffffffffffffffffffffffffffffff168273ffffffffffffffffffffffffffffffffffffffff1614155b156112a657600061118284610905565b9050600073ffffffffffffffffffffffffffffffffffffffff168373ffffffffffffffffffffffffffffffffffffffff16141580156111ed57508273ffffffffffffffffffffffffffffffffffffffff168173ffffffffffffffffffffffffffffffffffffffff1614155b801561120057506111fe8184610807565b155b1561124257826040517fa9fbf51f00000000000000000000000000000000000000000000000000000000815260040161123991906117fb565b60405180910390fd5b81156112a457838573ffffffffffffffffffffffffffffffffffffffff168273ffffffffffffffffffffffffffffffffffffffff167f8c5be1e5ebec7d5bd14f71427d1e84f3dd0314c0f7b2291e5b200ac8c7c3b92560405160405180910390a45b505b836004600085815260200190815260200160002060006101000a81548173ffffffffffffffffffffffffffffffffffffffff021916908373ffffffffffffffffffffffffffffffffffffffff16021790555050505050565b611309838383611515565b6113bd57600073ffffffffffffffffffffffffffffffffffffffff168373ffffffffffffffffffffffffffffffffffffffff160361137e57806040517f7e2732890000000000000000000000000000000000000000000000000000000081526004016113759190611911565b60405180910390fd5b81816040517f177e802f0000000000000000000000000000000000000000000000000000000081526004016113b4929190611dfc565b60405180910390fd5b505050565b600080600090507a184f03e93ff9f4daa797ed6e38ed64bf6a1f0100000000000000008310611420577a184f03e93ff9f4daa797ed6e38ed64bf6a1f010000000000000000838161141657611415611dcd565b5b0492506040810190505b6d04ee2d6d415b85acef8100000000831061145d576d04ee2d6d415b85acef8100000000838161145357611452611dcd565b5b0492506020810190505b662386f26fc10000831061148c57662386f26fc10000838161148257611481611dcd565b5b0492506010810190505b6305f5e10083106114b5576305f5e10083816114ab576114aa611dcd565b5b0492506008810190505b61271083106114da5761271083816114d0576114cf611dcd565b5b0492506004810190505b606483106114fd57606483816114f3576114f2611dcd565b5b0492506002810190505b600a831061150c576001810190505b80915050919050565b60008073ffffffffffffffffffffffffffffffffffffffff168373ffffffffffffffffffffffffffffffffffffffff16141580156115cd57508273ffffffffffffffffffffffffffffffffffffffff168473ffffffffffffffffffffffffffffffffffffffff16148061158e575061158d8484610807565b5b806115cc57508273ffffffffffffffffffffffffffffffffffffffff166115b48361098d565b73ffffffffffffffffffffffffffffffffffffffff16145b5b90509392505050565b6000604051905090565b600080fd5b600080fd5b60007fffffffff0000000000000000000000000000000000000000000000000000000082169050919050565b61161f816115ea565b811461162a57600080fd5b50565b60008135905061163c81611616565b92915050565b600060208284031215611658576116576115e0565b5b60006116668482850161162d565b91505092915050565b60008115159050919050565b6116848161166f565b82525050565b600060208201905061169f600083018461167b565b92915050565b600081519050919050565b600082825260208201905092915050565b60005b838110156116df5780820151818401526020810190506116c4565b60008484015250505050565b6000601f19601f8301169050919050565b6000611707826116a5565b61171181856116b0565b93506117218185602086016116c1565b61172a816116eb565b840191505092915050565b6000602082019050818103600083015261174f81846116fc565b905092915050565b6000819050919050565b61176a81611757565b811461177557600080fd5b50565b60008135905061178781611761565b92915050565b6000602082840312156117a3576117a26115e0565b5b60006117b184828501611778565b91505092915050565b600073ffffffffffffffffffffffffffffffffffffffff82169050919050565b60006117e5826117ba565b9050919050565b6117f5816117da565b82525050565b600060208201905061181060008301846117ec565b92915050565b61181f816117da565b811461182a57600080fd5b50565b60008135905061183c81611816565b92915050565b60008060408385031215611859576118586115e0565b5b60006118678582860161182d565b925050602061187885828601611778565b9150509250929050565b60008060006060848603121561189b5761189a6115e0565b5b60006118a98682870161182d565b93505060206118ba8682870161182d565b92505060406118cb86828701611778565b9150509250925092565b6000602082840312156118eb576118ea6115e0565b5b60006118f98482850161182d565b91505092915050565b61190b81611757565b82525050565b60006020820190506119266000830184611902565b92915050565b6119358161166f565b811461194057600080fd5b50565b6000813590506119528161192c565b92915050565b6000806040838503121561196f5761196e6115e0565b5b600061197d8582860161182d565b925050602061198e85828601611943565b9150509250929050565b600080fd5b600080fd5b7f4e487b7100000000000000000000000000000000000000000000000000000000600052604160045260246000fd5b6119da826116eb565b810181811067ffffffffffffffff821117156119f9576119f86119a2565b5b80604052505050565b6000611a0c6115d6565b9050611a1882826119d1565b919050565b600067ffffffffffffffff821115611a3857611a376119a2565b5b611a41826116eb565b9050602081019050919050565b82818337600083830152505050565b6000611a70611a6b84611a1d565b611a02565b905082815260208101848484011115611a8c57611a8b61199d565b5b611a97848285611a4e565b509392505050565b600082601f830112611ab457611ab3611998565b5b8135611ac4848260208601611a5d565b91505092915050565b60008060008060808587031215611ae757611ae66115e0565b5b6000611af58782880161182d565b9450506020611b068782880161182d565b9350506040611b1787828801611778565b925050606085013567ffffffffffffffff811115611b3857611b376115e5565b5b611b4487828801611a9f565b91505092959194509250565b60008060408385031215611b6757611b666115e0565b5b6000611b758582860161182d565b9250506020611b868582860161182d565b9150509250929050565b7f4e487b7100000000000000000000000000000000000000000000000000000000600052602260045260246000fd5b60006002820490506001821680611bd757607f821691505b602082108103611bea57611be9611b90565b5b50919050565b6000606082019050611c0560008301866117ec565b611c126020830185611902565b611c1f60408301846117ec565b949350505050565b7f4e487b7100000000000000000000000000000000000000000000000000000000600052601160045260246000fd5b6000611c6182611757565b9150611c6c83611757565b9250828201905080821115611c8457611c83611c27565b5b92915050565b600081905092915050565b6000611ca0826116a5565b611caa8185611c8a565b9350611cba8185602086016116c1565b80840191505092915050565b6000611cd28285611c95565b9150611cde8284611c95565b91508190509392505050565b600081519050919050565b600082825260208201905092915050565b6000611d1182611cea565b611d1b8185611cf5565b9350611d2b8185602086016116c1565b611d34816116eb565b840191505092915050565b6000608082019050611d5460008301876117ec565b611d6160208301866117ec565b611d6e6040830185611902565b8181036060830152611d808184611d06565b905095945050505050565b600081519050611d9a81611616565b92915050565b600060208284031215611db657611db56115e0565b5b6000611dc484828501611d8b565b91505092915050565b7f4e487b7100000000000000000000000000000000000000000000000000000000600052601260045260246000fd5b6000604082019050611e1160008301856117ec565b611e1e6020830184611902565b939250505056fea26469706673582212205078bb9bd4ae9b4255e3eade4044f492e721f6071d60828e4ca948409d7800ab64736f6c634300081c0033",
  "linkReferences": {},
  "deployedLinkReferences": {}
}